{
  "contractName": "AcademicMeritToken",
  "abi": [
    {
      "inputs": [],
      "stateMutability": "nonpayable",
      "type": "constructor"
    },
    {
      "anonymous": false,
      "inputs": [
        {
          "indexed": true,
          "internalType": "address",
          "name": "owner",
          "type": "address"
        },
        {
          "indexed": true,
          "internalType": "address",
          "name": "spender",
          "type": "address"
        },
        {
          "indexed": false,
          "internalType": "uint256",
          "name": "value",
          "type": "uint256"
        }
      ],
      "name": "Approval",
      "type": "event"
    },
    {
      "anonymous": false,
      "inputs": [
        {
          "indexed": true,
          "internalType": "address",
          "name": "student",
          "type": "address"
        },
        {
          "indexed": false,
          "internalType": "uint256",
          "name": "amount",
          "type": "uint256"
        },
        {
          "indexed": false,
          "internalType": "string",
          "name": "reason",
          "type": "string"
        }
      ],
      "name": "Awarded",
      "type": "event"
    },
    {
      "anonymous": false,
      "inputs": [
        {
          "indexed": true,
          "internalType": "address",
          "name": "student",
          "type": "address"
        },
        {
          "indexed": false,
          "internalType": "uint256",
          "name": "amount",
          "type": "uint256"
        }
      ],
      "name": "Redeemed",
      "type": "event"
    },
    {
      "anonymous": false,
      "inputs": [
        {
          "indexed": true,
          "internalType": "address",
          "name": "from",
          "type": "address"
        },
        {
          "indexed": true,
          "internalType": "address",
          "name": "to",
          "type": "address"
        },
        {
          "indexed": false,
          "internalType": "uint256",
          "name": "value",
          "type": "uint256"
        }
      ],
      "name": "Transfer",
      "type": "event"
    },
    {
      "inputs": [],
      "name": "admin",
      "outputs": [
        {
          "internalType": "address",
          "name": "",
          "type": "address"
        }
      ],
      "stateMutability": "view",
      "type": "function"
    },
    {
      "inputs": [
        {
          "internalType": "address",
          "name": "",
          "type": "address"
        },
        {
          "internalType": "address",
          "name": "",
          "type": "address"
        }
      ],
      "name": "allowance",
      "outputs": [
        {
          "internalType": "uint256",
          "name": "",
          "type": "uint256"
        }
      ],
      "stateMutability": "view",
      "type": "function"
    },
    {
      "inputs": [
        {
          "internalType": "address",
          "name": "",
          "type": "address"
        }
      ],
      "name": "balanceOf",
      "outputs": [
        {
          "internalType": "uint256",
          "name": "",
          "type": "uint256"
        }
      ],
      "stateMutability": "view",
      "type": "function"
    },
    {
      "inputs": [],
      "name": "decimals",
      "outputs": [
        {
          "internalType": "uint8",
          "name": "",
          "type": "uint8"
        }
      ],
      "stateMutability": "view",
      "type": "function"
    },
    {
      "inputs": [],
      "name": "name",
      "outputs": [
        {
          "internalType": "string",
          "name": "",
          "type": "string"
        }
      ],
      "stateMutability": "view",
      "type": "function"
    },
    {
      "inputs": [],
      "name": "symbol",
      "outputs": [
        {
          "internalType": "string",
          "name": "",
          "type": "string"
        }
      ],
      "stateMutability": "view",
      "type": "function"
    },
    {
      "inputs": [],
      "name": "totalSupply",
      "outputs": [
        {
          "internalType": "uint256",
          "name": "",
          "type": "uint256"
        }
      ],
      "stateMutability": "view",
      "type": "function"
    },
    {
      "inputs": [
        {
          "internalType": "address",
          "name": "to",
          "type": "address"
        },
        {
          "internalType": "uint256",
          "name": "value",
          "type": "uint256"
        }
      ],
      "name": "transfer",
      "outputs": [
        {
          "internalType": "bool",
          "name": "",
          "type": "bool"
        }
      ],
      "stateMutability": "nonpayable",
      "type": "function"
    },
    {
      "inputs": [
        {
          "internalType": "address",
          "name": "spender",
          "type": "address"
        },
        {
          "internalType": "uint256",
          "name": "value",
          "type": "uint256"
        }
      ],
      "name": "approve",
      "outputs": [
        {
          "internalType": "bool",
          "name": "",
          "type": "bool"
        }
      ],
      "stateMutability": "nonpayable",
      "type": "function"
    },
    {
      "inputs": [
        {
          "internalType": "address",
          "name": "from",
          "type": "address"
        },
        {
          "internalType": "address",
          "name": "to",
          "type": "address"
        },
        {
          "internalType": "uint256",
          "name": "value",
          "type": "uint256"
        }
      ],
      "name": "transferFrom",
      "outputs": [
        {
          "internalType": "bool",
          "name": "",
          "type": "bool"
        }
      ],
      "stateMutability": "nonpayable",
      "type": "function"
    },
    {
      "inputs": [
        {
          "internalType": "address",
          "name": "student",
          "type": "address"
        },
        {
          "internalType": "uint256",
          "name": "amount",
          "type": "uint256"
        },
        {
          "internalType": "string",
          "name": "reason",
          "type": "string"
        }
      ],
      "name": "awardStudent",
      "outputs": [],
      "stateMutability": "nonpayable",
      "type": "function"
    },
    {
      "inputs": [
        {
          "internalType": "uint256",
          "name": "amount",
          "type": "uint256"
        }
      ],
      "name": "redeem",
      "outputs": [],
      "stateMutability": "nonpayable",
      "type": "function"
    },
    {
      "inputs": [
        {
          "internalType": "address",
          "name": "student",
          "type": "address"
        }
      ],
      "name": "getBalance",
      "outputs": [
        {
          "internalType": "uint256",
          "name": "",
          "type": "uint256"
        }
      ],
      "stateMutability": "view",
      "type": "function"
    }
  ],
  "bytecode": "0x60c0604052601460809081527f41636164656d6963204d6572697420546f6b656e00000000000000000000000060a0526000906200003e908262000141565b5060408051808201909152600381526210535560ea1b602082015260019062000068908262000141565b506002805460ff191660121790553480156200008357600080fd5b50600680546001600160a01b031916331790556200020d565b634e487b7160e01b600052604160045260246000fd5b600181811c90821680620000c757607f821691505b602082108103620000e857634e487b7160e01b600052602260045260246000fd5b50919050565b601f8211156200013c57600081815260208120601f850160051c81016020861015620001175750805b601f850160051c820191505b81811015620001385782815560010162000123565b5050505b505050565b81516001600160401b038111156200015d576200015d6200009c565b62000175816200016e8454620000b2565b84620000ee565b602080601f831160018114620001ad5760008415620001945750858301515b600019600386901b1c1916600185901b17855562000138565b600085815260208120601f198616915b82811015620001de57888601518255948401946001909101908401620001bd565b5085821015620001fd5787850151600019600388901b60f8161c191681555b5050505050600190811b01905550565b610ca8806200021d6000396000f3fe608060405234801561001057600080fd5b50600436106100cf5760003560e01c806370a082311161008c578063db006a7511610066578063db006a75146101ae578063dd62ed3e146101c1578063f851a440146101ec578063f8b2cb4f1461021757600080fd5b806370a082311461017357806395d89b4114610193578063a9059cbb1461019b57600080fd5b806306fdde03146100d4578063095ea7b3146100f257806318160ddd1461011557806323b872dd1461012c578063313ce5671461013f57806368a37c731461015e575b600080fd5b6100dc61022a565b6040516100e9919061087d565b60405180910390f35b6101056101003660046108b3565b6102b8565b60405190151581526020016100e9565b61011e60035481565b6040519081526020016100e9565b61010561013a3660046108dd565b610325565b60025461014c9060ff1681565b60405160ff90911681526020016100e9565b61017161016c36600461092f565b6104a0565b005b61011e6101813660046109fa565b60046020526000908152604090205481565b6100dc610612565b6101056101a93660046108b3565b61061f565b6101716101bc366004610a15565b6106ca565b61011e6101cf366004610a2e565b600560209081526000928352604080842090915290825290205481565b6006546101ff906001600160a01b031681565b6040516001600160a01b0390911681526020016100e9565b61011e6102253660046109fa565b610800565b6000805461023790610a61565b80601f016020809104026020016040519081016040528092919081815260200182805461026390610a61565b80156102b05780601f10610285576101008083540402835291602001916102b0565b820191906000526020600020905b81548152906001019060200180831161029357829003601f168201915b505050505081565b3360008181526005602090815260408083206001600160a01b038716808552925280832085905551919290917f8c5be1e5ebec7d5bd14f71427d1e84f3dd0314c0f7b2291e5b200ac8c7c3b925906103139086815260200190565b60405180910390a35060015b92915050565b6001600160a01b0383166000908152600460205260408120548211156103665760405162461bcd60e51b815260040161035d90610a9b565b60405180910390fd5b6001600160a01b03841660009081526005602090815260408083203384529091529020548211156103c75760405162461bcd60e51b815260206004820152600b60248201526a139bdd08185b1b1bddd95960aa1b604482015260640161035d565b6001600160a01b038416600090815260046020526040812080548492906103ef908490610adf565b90915550506001600160a01b0383166000908152600460205260408120805484929061041c908490610af2565b90915550506001600160a01b038416600090815260056020908152604080832033845290915281208054849290610454908490610adf565b92505081905550826001600160a01b0316846001600160a01b0316600080516020610c538339815191528460405161048e91815260200190565b60405180910390a35060019392505050565b6006546001600160a01b031633146104e75760405162461bcd60e51b815260206004820152600a60248201526927b7363c9030b236b4b760b11b604482015260640161035d565b600082116105315760405162461bcd60e51b8152602060048201526017602482015276416d6f756e74206d75737420626520706f73697469766560481b604482015260640161035d565b6002546000906105459060ff16600a610be9565b61054f9084610bf8565b6001600160a01b03851660009081526004602052604081208054929350839290919061057c908490610af2565b9250508190555080600360008282546105959190610af2565b90915550506040518181526001600160a01b03851690600090600080516020610c538339815191529060200160405180910390a3836001600160a01b03167f6992574b5dfb88a4edcf45d5a55094ec820fda73984bac1917dc53ddd8e4944c8484604051610604929190610c0f565b60405180910390a250505050565b6001805461023790610a61565b3360009081526004602052604081205482111561064e5760405162461bcd60e51b815260040161035d90610a9b565b336000908152600460205260408120805484929061066d908490610adf565b90915550506001600160a01b0383166000908152600460205260408120805484929061069a908490610af2565b90915550506040518281526001600160a01b038416903390600080516020610c5383398151915290602001610313565b600081116107145760405162461bcd60e51b8152602060048201526017602482015276416d6f756e74206d75737420626520706f73697469766560481b604482015260640161035d565b6002546000906107289060ff16600a610be9565b6107329083610bf8565b336000908152600460205260409020549091508111156107645760405162461bcd60e51b815260040161035d90610a9b565b3360009081526004602052604081208054839290610783908490610adf565b92505081905550806003600082825461079c9190610adf565b90915550506040518181526000903390600080516020610c538339815191529060200160405180910390a360405182815233907f4896181ff8f4543cc00db9fe9b6fb7e6f032b7eb772c72ab1ec1b4d2e03b93699060200160405180910390a25050565b6002546000906108149060ff16600a610be9565b6001600160a01b03831660009081526004602052604090205461031f9190610c30565b6000815180845260005b8181101561085d57602081850181015186830182015201610841565b506000602082860101526020601f19601f83011685010191505092915050565b6020815260006108906020830184610837565b9392505050565b80356001600160a01b03811681146108ae57600080fd5b919050565b600080604083850312156108c657600080fd5b6108cf83610897565b946020939093013593505050565b6000806000606084860312156108f257600080fd5b6108fb84610897565b925061090960208501610897565b9150604084013590509250925092565b634e487b7160e01b600052604160045260246000fd5b60008060006060848603121561094457600080fd5b61094d84610897565b925060208401359150604084013567ffffffffffffffff8082111561097157600080fd5b818601915086601f83011261098557600080fd5b81358181111561099757610997610919565b604051601f8201601f19908116603f011681019083821181831017156109bf576109bf610919565b816040528281528960208487010111156109d857600080fd5b8260208601602083013760006020848301015280955050505050509250925092565b600060208284031215610a0c57600080fd5b61089082610897565b600060208284031215610a2757600080fd5b5035919050565b60008060408385031215610a4157600080fd5b610a4a83610897565b9150610a5860208401610897565b90509250929050565b600181811c90821680610a7557607f821691505b602082108103610a9557634e487b7160e01b600052602260045260246000fd5b50919050565b602080825260149082015273496e73756666696369656e742062616c616e636560601b604082015260600190565b634e487b7160e01b600052601160045260246000fd5b8181038181111561031f5761031f610ac9565b8082018082111561031f5761031f610ac9565b600181815b80851115610b40578160001904821115610b2657610b26610ac9565b80851615610b3357918102915b93841c9390800290610b0a565b509250929050565b600082610b575750600161031f565b81610b645750600061031f565b8160018114610b7a5760028114610b8457610ba0565b600191505061031f565b60ff841115610b9557610b95610ac9565b50506001821b61031f565b5060208310610133831016604e8410600b8410161715610bc3575081810a61031f565b610bcd8383610b05565b8060001904821115610be157610be1610ac9565b029392505050565b600061089060ff841683610b48565b808202811582820484141761031f5761031f610ac9565b828152604060208201526000610c286040830184610837565b949350505050565b600082610c4d57634e487b7160e01b600052601260045260246000fd5b50049056feddf252ad1be2c89b69c2b068fc378daa952ba7f163c4a11628f55a4df523b3efa2646970667358221220c107f7ef6473c32efffd6121870cb34c313cab2eb701a5fbb4fda573b7b806fb64736f6c63430008140033",
  "immutableReferences": {},
  "source": "// SPDX-License-Identifier: MIT\r\npragma solidity ^0.8.0;\r\n\r\ncontract AcademicMeritToken {\r\n    string public name = \"Academic Merit Token\";\r\n    string public symbol = \"AMT\";\r\n    uint8 public decimals = 18;\r\n    uint256 public totalSupply;\r\n\r\n    mapping(address => uint256) public balanceOf;\r\n    mapping(address => mapping(address => uint256)) public allowance;\r\n\r\n    address public admin;\r\n\r\n    event Transfer(address indexed from, address indexed to, uint256 value);\r\n    event Approval(address indexed owner, address indexed spender, uint256 value);\r\n    event Awarded(address indexed student, uint256 amount, string reason);\r\n    event Redeemed(address indexed student, uint256 amount);\r\n\r\n    modifier onlyAdmin() {\r\n        require(msg.sender == admin, \"Only admin\");\r\n        _;\r\n    }\r\n\r\n    constructor() {\r\n        admin = msg.sender;\r\n    }\r\n\r\n    // ERC-20 стандартные методы\r\n    function transfer(address to, uint256 value) public returns (bool) {\r\n        require(balanceOf[msg.sender] >= value, \"Insufficient balance\");\r\n        balanceOf[msg.sender] -= value;\r\n        balanceOf[to] += value;\r\n        emit Transfer(msg.sender, to, value);\r\n        return true;\r\n    }\r\n\r\n    function approve(address spender, uint256 value) public returns (bool) {\r\n        allowance[msg.sender][spender] = value;\r\n        emit Approval(msg.sender, spender, value);\r\n        return true;\r\n    }\r\n\r\n    function transferFrom(address from, address to, uint256 value) public returns (bool) {\r\n        require(balanceOf[from] >= value, \"Insufficient balance\");\r\n        require(allowance[from][msg.sender] >= value, \"Not allowed\");\r\n        balanceOf[from] -= value;\r\n        balanceOf[to] += value;\r\n        allowance[from][msg.sender] -= value;\r\n        emit Transfer(from, to, value);\r\n        return true;\r\n    }\r\n\r\n    // Начисление токенов за достижения\r\n    function awardStudent(address student, uint256 amount, string memory reason) public onlyAdmin {\r\n        require(amount > 0, \"Amount must be positive\");\r\n        uint256 mintAmount = amount * 10**decimals;\r\n        balanceOf[student] += mintAmount;\r\n        totalSupply += mintAmount;\r\n        emit Transfer(address(0), student, mintAmount);\r\n        emit Awarded(student, amount, reason);\r\n    }\r\n\r\n    // Обмен токенов на привилегии (сжигание)\r\n    function redeem(uint256 amount) public {\r\n        require(amount > 0, \"Amount must be positive\");\r\n        uint256 burnAmount = amount * 10**decimals;\r\n        require(balanceOf[msg.sender] >= burnAmount, \"Insufficient balance\");\r\n        balanceOf[msg.sender] -= burnAmount;\r\n        totalSupply -= burnAmount;\r\n        emit Transfer(msg.sender, address(0), burnAmount);\r\n        emit Redeemed(msg.sender, amount);\r\n    }\r\n\r\n    // Получить баланс в AMT (без wei)\r\n    function getBalance(address student) public view returns (uint256) {\r\n        return balanceOf[student] / 10**decimals;\r\n    }\r\n}",
  "sourcePath": "C:\\Users\\rustools\\Desktop\\combining files\\contracts\\AMToken.sol",
  "compiler": {
    "name": "solc",
    "version": "0.8.20+commit.a1b79de6.Emscripten.clang"
  },
  "schemaVersion": "3.4.16",
  "updatedAt": "2026-03-27T17:11:43.777Z",
  "devdoc": {
    "kind": "dev",
    "methods": {},
    "version": 1
  },
  "userdoc": {
    "kind": "user",
    "methods": {},
    "version": 1
  }
}